{
  "_format": "hh-sol-artifact-1",
  "contractName": "DecentralizedStorage",
  "sourceName": "contracts/Storage.sol",
  "abi": [
    {
      "anonymous": false,
      "inputs": [
        {
          "indexed": true,
          "internalType": "uint256",
          "name": "fileId",
          "type": "uint256"
        },
        {
          "indexed": false,
          "internalType": "string",
          "name": "ipfsHash",
          "type": "string"
        },
        {
          "indexed": false,
          "internalType": "address",
          "name": "owner",
          "type": "address"
        }
      ],
      "name": "FileStored",
      "type": "event"
    },
    {
      "inputs": [
        {
          "internalType": "uint256",
          "name": "",
          "type": "uint256"
        }
      ],
      "name": "files",
      "outputs": [
        {
          "internalType": "string",
          "name": "ipfsHash",
          "type": "string"
        },
        {
          "internalType": "address",
          "name": "owner",
          "type": "address"
        }
      ],
      "stateMutability": "view",
      "type": "function"
    },
    {
      "inputs": [],
      "name": "getFiles",
      "outputs": [
        {
          "internalType": "string[]",
          "name": "",
          "type": "string[]"
        }
      ],
      "stateMutability": "view",
      "type": "function"
    },
    {
      "inputs": [
        {
          "internalType": "string",
          "name": "_ipfsHash",
          "type": "string"
        }
      ],
      "name": "storeFile",
      "outputs": [],
      "stateMutability": "nonpayable",
      "type": "function"
    },
    {
      "inputs": [
        {
          "internalType": "address",
          "name": "",
          "type": "address"
        },
        {
          "internalType": "uint256",
          "name": "",
          "type": "uint256"
        }
      ],
      "name": "userFiles",
      "outputs": [
        {
          "internalType": "uint256",
          "name": "",
          "type": "uint256"
        }
      ],
      "stateMutability": "view",
      "type": "function"
    }
  ],
  "bytecode": "0x608060405234801561001057600080fd5b50610e40806100206000396000f3fe608060405234801561001057600080fd5b506004361061004c5760003560e01c80632da96d7314610051578063718f38a61461006f578063e602406a1461009f578063f4c714b4146100bb575b600080fd5b6100596100ec565b60405161006691906106ea565b60405180910390f35b610089600480360381019061008491906107b4565b610311565b6040516100969190610803565b60405180910390f35b6100b960048036038101906100b49190610953565b610342565b005b6100d560048036038101906100d0919061099c565b6104bc565b6040516100e3929190610a22565b60405180910390f35b60606000600160003373ffffffffffffffffffffffffffffffffffffffff1673ffffffffffffffffffffffffffffffffffffffff1681526020019081526020016000208054905067ffffffffffffffff81111561014c5761014b610828565b5b60405190808252806020026020018201604052801561017f57816020015b606081526020019060019003908161016a5790505b50905060005b600160003373ffffffffffffffffffffffffffffffffffffffff1673ffffffffffffffffffffffffffffffffffffffff16815260200190815260200160002080549050811015610309576000600160003373ffffffffffffffffffffffffffffffffffffffff1673ffffffffffffffffffffffffffffffffffffffff168152602001908152602001600020828154811061022257610221610a52565b5b90600052602060002001548154811061023e5761023d610a52565b5b9060005260206000209060020201600001805461025a90610ab0565b80601f016020809104026020016040519081016040528092919081815260200182805461028690610ab0565b80156102d35780601f106102a8576101008083540402835291602001916102d3565b820191906000526020600020905b8154815290600101906020018083116102b657829003601f168201915b50505050508282815181106102eb576102ea610a52565b5b6020026020010181905250808061030190610b10565b915050610185565b508091505090565b6001602052816000526040600020818154811061032d57600080fd5b90600052602060002001600091509150505481565b600060405180604001604052808381526020013373ffffffffffffffffffffffffffffffffffffffff16815250908060018154018082558091505060019003906000526020600020906002020160009091909190915060008201518160000190816103ad9190610d04565b5060208201518160010160006101000a81548173ffffffffffffffffffffffffffffffffffffffff021916908373ffffffffffffffffffffffffffffffffffffffff1602179055505050600160003373ffffffffffffffffffffffffffffffffffffffff1673ffffffffffffffffffffffffffffffffffffffff16815260200190815260200160002060016000805490506104489190610dd6565b908060018154018082558091505060019003906000526020600020016000909190919091505560016000805490506104809190610dd6565b7f70395e6616e1affbb4bccd107407e0ef99b0b1a698a1d7a95a4b86c2ab16c71382336040516104b1929190610a22565b60405180910390a250565b600081815481106104cc57600080fd5b90600052602060002090600202016000915090508060000180546104ef90610ab0565b80601f016020809104026020016040519081016040528092919081815260200182805461051b90610ab0565b80156105685780601f1061053d57610100808354040283529160200191610568565b820191906000526020600020905b81548152906001019060200180831161054b57829003601f168201915b5050505050908060010160009054906101000a900473ffffffffffffffffffffffffffffffffffffffff16905082565b600081519050919050565b600082825260208201905092915050565b6000819050602082019050919050565b600081519050919050565b600082825260208201905092915050565b60005b838110156105fe5780820151818401526020810190506105e3565b60008484015250505050565b6000601f19601f8301169050919050565b6000610626826105c4565b61063081856105cf565b93506106408185602086016105e0565b6106498161060a565b840191505092915050565b6000610660838361061b565b905092915050565b6000602082019050919050565b600061068082610598565b61068a81856105a3565b93508360208202850161069c856105b4565b8060005b858110156106d857848403895281516106b98582610654565b94506106c483610668565b925060208a019950506001810190506106a0565b50829750879550505050505092915050565b600060208201905081810360008301526107048184610675565b905092915050565b6000604051905090565b600080fd5b600080fd5b600073ffffffffffffffffffffffffffffffffffffffff82169050919050565b600061074b82610720565b9050919050565b61075b81610740565b811461076657600080fd5b50565b60008135905061077881610752565b92915050565b6000819050919050565b6107918161077e565b811461079c57600080fd5b50565b6000813590506107ae81610788565b92915050565b600080604083850312156107cb576107ca610716565b5b60006107d985828601610769565b92505060206107ea8582860161079f565b9150509250929050565b6107fd8161077e565b82525050565b600060208201905061081860008301846107f4565b92915050565b600080fd5b600080fd5b7f4e487b7100000000000000000000000000000000000000000000000000000000600052604160045260246000fd5b6108608261060a565b810181811067ffffffffffffffff8211171561087f5761087e610828565b5b80604052505050565b600061089261070c565b905061089e8282610857565b919050565b600067ffffffffffffffff8211156108be576108bd610828565b5b6108c78261060a565b9050602081019050919050565b82818337600083830152505050565b60006108f66108f1846108a3565b610888565b90508281526020810184848401111561091257610911610823565b5b61091d8482856108d4565b509392505050565b600082601f83011261093a5761093961081e565b5b813561094a8482602086016108e3565b91505092915050565b60006020828403121561096957610968610716565b5b600082013567ffffffffffffffff8111156109875761098661071b565b5b61099384828501610925565b91505092915050565b6000602082840312156109b2576109b1610716565b5b60006109c08482850161079f565b91505092915050565b600082825260208201905092915050565b60006109e5826105c4565b6109ef81856109c9565b93506109ff8185602086016105e0565b610a088161060a565b840191505092915050565b610a1c81610740565b82525050565b60006040820190508181036000830152610a3c81856109da565b9050610a4b6020830184610a13565b9392505050565b7f4e487b7100000000000000000000000000000000000000000000000000000000600052603260045260246000fd5b7f4e487b7100000000000000000000000000000000000000000000000000000000600052602260045260246000fd5b60006002820490506001821680610ac857607f821691505b602082108103610adb57610ada610a81565b5b50919050565b7f4e487b7100000000000000000000000000000000000000000000000000000000600052601160045260246000fd5b6000610b1b8261077e565b91507fffffffffffffffffffffffffffffffffffffffffffffffffffffffffffffffff8203610b4d57610b4c610ae1565b5b600182019050919050565b60008190508160005260206000209050919050565b60006020601f8301049050919050565b600082821b905092915050565b600060088302610bba7fffffffffffffffffffffffffffffffffffffffffffffffffffffffffffffffff82610b7d565b610bc48683610b7d565b95508019841693508086168417925050509392505050565b6000819050919050565b6000610c01610bfc610bf78461077e565b610bdc565b61077e565b9050919050565b6000819050919050565b610c1b83610be6565b610c2f610c2782610c08565b848454610b8a565b825550505050565b600090565b610c44610c37565b610c4f818484610c12565b505050565b5b81811015610c7357610c68600082610c3c565b600181019050610c55565b5050565b601f821115610cb857610c8981610b58565b610c9284610b6d565b81016020851015610ca1578190505b610cb5610cad85610b6d565b830182610c54565b50505b505050565b600082821c905092915050565b6000610cdb60001984600802610cbd565b1980831691505092915050565b6000610cf48383610cca565b9150826002028217905092915050565b610d0d826105c4565b67ffffffffffffffff811115610d2657610d25610828565b5b610d308254610ab0565b610d3b828285610c77565b600060209050601f831160018114610d6e5760008415610d5c578287015190505b610d668582610ce8565b865550610dce565b601f198416610d7c86610b58565b60005b82811015610da457848901518255600182019150602085019450602081019050610d7f565b86831015610dc15784890151610dbd601f891682610cca565b8355505b6001600288020188555050505b505050505050565b6000610de18261077e565b9150610dec8361077e565b9250828203905081811115610e0457610e03610ae1565b5b9291505056fea2646970667358221220ba3bfdc68d6f5db436512d77972735ed9e60907ba1a4b546c960410729d74bfb64736f6c63430008130033",
  "linkReferences": {},
  "deployedLinkReferences": {}
}